:10100000971100009381019B171100001301811CAF
:1010100013850181938501811386C18163FCC5001D
:101020008322050023A05500130545009385450044
:10103000E3E8C5FE1385C181938501826378B5001D
:101040002320050013054500E36CB5FEEF00000109
:0C105000EF00C0116F000000678000007E
:10105C00130101FF2324810023202101138401812A
:10106C001389018133098940232611002322910021
:10107C0013592940630E09009304000083270400D0
:10108C009384140013044400E7800700E31899FECE
:10109C001384018113890181330989401359294033
:1010AC00630E09009304000083270400938414004A
:1010BC0013044400E7800700E31899FE8320C10065
:1010CC000324810083244100032901001301010141
:1010DC006780000037070040B7470F00938707244D
:1010EC002320F7003305F502930740063355F5022C
:1010FC002322A70067800000130101FF23261100A3
:10110C009307400B63F4A7001305400B93172500BE
:10111C003385A7009307400B3355F5021305550093
:10112C00EFF05FFB8320C100130101016780000019
:10113C00930600006F0080009386160063F0A602F1
:10114C0013070000B78701009387F769E3E6E7FE12
:10115C0013000000130717006FF0DFFE678000001C
:10116C00130101FF23261100232481001305000025
:10117C00EFF09FF837440F0013050424EFF05FFBEA
:10118C001305A005EFF05FF713050424EFF05FFAE9
:10119C001305400BEFF05FF613050424EFF05FF935
:1011AC00130500008320C1000324810013010101F9
:0411BC006780000048
:0A11C0000000000000000000000025
:0400000300001000E9
:00000001FF
